{
  "transactions": [
    {
      "hash": "0x0f54f65172667ab57b1f03be1d93e36d00fc8091f340520bbbed5fc8c7d6a4bb",
      "transactionType": "CALL",
      "contractName": null,
      "contractAddress": "0x0faabbda5abf0160b0b3621c2705fa94794de14d",
      "function": "grantRole(bytes32,address)",
      "arguments": [
        "0xe2b7fb3b832174769106daebcfd6d1970523240dda11281102db9363b83b0dc4",
        "0x39EcF94ed35451A67006dcCE4A467aecdfAB6940"
      ],
      "transaction": {
        "from": "0x39ecf94ed35451a67006dcce4a467aecdfab6940",
        "to": "0x0faabbda5abf0160b0b3621c2705fa94794de14d",
        "gas": "0x114a9",
        "value": "0x0",
        "input": "0x2f2ff15de2b7fb3b832174769106daebcfd6d1970523240dda11281102db9363b83b0dc400000000000000000000000039ecf94ed35451a67006dcce4a467aecdfab6940",
        "nonce": "0x1c3",
        "chainId": "0xaa36a7"
      },
      "additionalContracts": [],
      "isFixedGasLimit": false
    },
    {
      "hash": "0x4ccec913a10a40235bcfa3e1163e939cb3ebf51d9fe7885e5d6a035f68762fd8",
      "transactionType": "CALL",
      "contractName": null,
      "contractAddress": "0x0faabbda5abf0160b0b3621c2705fa94794de14d",
      "function": "updateBaseRate(uint256)",
      "arguments": [
        "500"
      ],
      "transaction": {
        "from": "0x39ecf94ed35451a67006dcce4a467aecdfab6940",
        "to": "0x0faabbda5abf0160b0b3621c2705fa94794de14d",
        "gas": "0x9a59",
        "value": "0x0",
        "input": "0x330283aa00000000000000000000000000000000000000000000000000000000000001f4",
        "nonce": "0x1c4",
        "chainId": "0xaa36a7"
      },
      "additionalContracts": [],
      "isFixedGasLimit": false
    },
    {
      "hash": "0xab1d2d62e26664536bbf24d545b88e0d97d0c534d4d1e02f728f20707516a1b9",
      "transactionType": "CALL",
      "contractName": null,
      "contractAddress": "0x0faabbda5abf0160b0b3621c2705fa94794de14d",
      "function": "proposeOmega(address,uint256)",
      "arguments": [
        "0x0438b37cf877da19a633a3392E5fACC9180F6656",
        "6000"
      ],
      "transaction": {
        "from": "0x39ecf94ed35451a67006dcce4a467aecdfab6940",
        "to": "0x0faabbda5abf0160b0b3621c2705fa94794de14d",
        "gas": "0x1952d",
        "value": "0x0",
        "input": "0x9af3b6d50000000000000000000000000438b37cf877da19a633a3392e5facc9180f66560000000000000000000000000000000000000000000000000000000000001770",
        "nonce": "0x1c5",
        "chainId": "0xaa36a7"
      },
      "additionalContracts": [],
      "isFixedGasLimit": false
    },
    {
      "hash": "0xfab311d68d09c647f0674636ffe49800b4aac7c027538162aa92f4d55fe05538",
      "transactionType": "CALL",
      "contractName": null,
      "contractAddress": "0x0faabbda5abf0160b0b3621c2705fa94794de14d",
      "function": "finalizeOmega(address)",
      "arguments": [
        "0x0438b37cf877da19a633a3392E5fACC9180F6656"
      ],
      "transaction": {
        "from": "0x39ecf94ed35451a67006dcce4a467aecdfab6940",
        "to": "0x0faabbda5abf0160b0b3621c2705fa94794de14d",
        "gas": "0x10cc6",
        "value": "0x0",
        "input": "0x1cb10ff60000000000000000000000000438b37cf877da19a633a3392e5facc9180f6656",
        "nonce": "0x1c6",
        "chainId": "0xaa36a7"
      },
      "additionalContracts": [],
      "isFixedGasLimit": false
    },
    {
      "hash": "0xb2df845adefd7ff241ce0f9d7ddd9b8c0d6e7d9e4f48e0872c0cba927baf126e",
      "transactionType": "CALL",
      "contractName": null,
      "contractAddress": "0x0faabbda5abf0160b0b3621c2705fa94794de14d",
      "function": "updateRiskParams(address,uint256,uint256,uint256,uint256,uint256,uint256,uint256,uint256)",
      "arguments": [
        "0x0438b37cf877da19a633a3392E5fACC9180F6656",
        "2000000000000000000",
        "9400",
        "450000000000000000",
        "500000000000000000",
        "0",
        "1000000000000000000000000",
        "200",
        "100"
      ],
      "transaction": {
        "from": "0x39ecf94ed35451a67006dcce4a467aecdfab6940",
        "to": "0x0faabbda5abf0160b0b3621c2705fa94794de14d",
        "gas": "0x43a9e",
        "value": "0x0",
        "input": "0xba0ef8410000000000000000000000000438b37cf877da19a633a3392e5facc9180f66560000000000000000000000000000000000000000000000001bc16d674ec8000000000000000000000000000000000000000000000000000000000000000024b8000000000000000000000000000000000000000000000000063eb89da4ed000000000000000000000000000000000000000000000000000006f05b59d3b20000000000000000000000000000000000000000000000000000000000000000000000000000000000000000000000000000000000000000d3c21bcecceda100000000000000000000000000000000000000000000000000000000000000000000c80000000000000000000000000000000000000000000000000000000000000064",
        "nonce": "0x1c7",
        "chainId": "0xaa36a7"
      },
      "additionalContracts": [],
      "isFixedGasLimit": false
    }
  ],
  "receipts": [
    {
      "status": "0x1",
      "cumulativeGasUsed": "0xc41f39",
      "logs": [
        {
          "address": "0x0faabbda5abf0160b0b3621c2705fa94794de14d",
          "topics": [
            "0x2f8788117e7eff1d82e926ec794901d17c78024a50270940304540a733656f0d",
            "0xe2b7fb3b832174769106daebcfd6d1970523240dda11281102db9363b83b0dc4",
            "0x00000000000000000000000039ecf94ed35451a67006dcce4a467aecdfab6940",
            "0x00000000000000000000000039ecf94ed35451a67006dcce4a467aecdfab6940"
          ],
          "data": "0x",
          "blockHash": "0x5f2e451583d64f1448e9b232b89ee970c9ca5aa31e6239f1fca04096bd8a5028",
          "blockNumber": "0xa023b9",
          "blockTimestamp": "0x69bf5674",
          "transactionHash": "0x0f54f65172667ab57b1f03be1d93e36d00fc8091f340520bbbed5fc8c7d6a4bb",
          "transactionIndex": "0x7a",
          "logIndex": "0x182",
          "removed": false
        }
      ],
      "logsBloom": "0x00001204000000000000000000000000000000000000000000000000000000000000400000000000000000000000000004000000000000000000000000000000000000000000000000000000000000000000000000000000000000000000000000000000000000000000000000000000000000000000000000000000000000000000000000000000000200000000000000000000000040000000000000000000000000000000000000000000800000000000000000000000001000000000000000000000000000000000000000000000000000000000000100000000000000000000000000000000000000000000000000000000000000000002100000000000",
      "type": "0x0",
      "transactionHash": "0x0f54f65172667ab57b1f03be1d93e36d00fc8091f340520bbbed5fc8c7d6a4bb",
      "transactionIndex": "0x7a",
      "blockHash": "0x5f2e451583d64f1448e9b232b89ee970c9ca5aa31e6239f1fca04096bd8a5028",
      "blockNumber": "0xa023b9",
      "gasUsed": "0xc84d",
      "effectiveGasPrice": "0xf424d",
      "from": "0x39ecf94ed35451a67006dcce4a467aecdfab6940",
      "to": "0x0faabbda5abf0160b0b3621c2705fa94794de14d",
      "contractAddress": null
    },
    {
      "status": "0x1",
      "cumulativeGasUsed": "0xc488c3",
      "logs": [
        {
          "address": "0x0faabbda5abf0160b0b3621c2705fa94794de14d",
          "topics": [
            "0xc454ee9b76c52f782a256af821b857ca6e125d1e3333bcede402fec2bed9600c"
          ],
          "data": "0x00000000000000000000000000000000000000000000000000000000000001f4",
          "blockHash": "0x5f2e451583d64f1448e9b232b89ee970c9ca5aa31e6239f1fca04096bd8a5028",
          "blockNumber": "0xa023b9",
          "blockTimestamp": "0x69bf5674",
          "transactionHash": "0x4ccec913a10a40235bcfa3e1163e939cb3ebf51d9fe7885e5d6a035f68762fd8",
          "transactionIndex": "0x7b",
          "logIndex": "0x183",
          "removed": false
        }
      ],
      "logsBloom": "0x00001200000000000000000000000000000000000000000000000000000000000000000000000000000000000000000000000000000000000200000000000000000000000000000000000000002000000000000000000000000000000000000000000000000000000000000000000000000000000000000000000000000000000000000000000000000000000000000000000000000040000000000000000000000000000000000000000000000000000000000000000000000000000000000000000000000000000000000000000000000000000000000004000000000000000000000000000000000000000000000000000000000000000000000000000000",
      "type": "0x0",
      "transactionHash": "0x4ccec913a10a40235bcfa3e1163e939cb3ebf51d9fe7885e5d6a035f68762fd8",
      "transactionIndex": "0x7b",
      "blockHash": "0x5f2e451583d64f1448e9b232b89ee970c9ca5aa31e6239f1fca04096bd8a5028",
      "blockNumber": "0xa023b9",
      "gasUsed": "0x698a",
      "effectiveGasPrice": "0xf424d",
      "from": "0x39ecf94ed35451a67006dcce4a467aecdfab6940",
      "to": "0x0faabbda5abf0160b0b3621c2705fa94794de14d",
      "contractAddress": null
    },
    {
      "status": "0x1",
      "cumulativeGasUsed": "0xc5ae1b",
      "logs": [
        {
          "address": "0x0faabbda5abf0160b0b3621c2705fa94794de14d",
          "topics": [
            "0x5f25b9940aab113ecd0e39a8b6e766bf1ad153a027e979f18b13da280ed12e72",
            "0x0000000000000000000000000438b37cf877da19a633a3392e5facc9180f6656"
          ],
          "data": "0x000000000000000000000000000000000000000000000000000000000000000000000000000000000000000000000000000000000000000000000000000017700000000000000000000000000000000000000000000000000000000069bf5674",
          "blockHash": "0x5f2e451583d64f1448e9b232b89ee970c9ca5aa31e6239f1fca04096bd8a5028",
          "blockNumber": "0xa023b9",
          "blockTimestamp": "0x69bf5674",
          "transactionHash": "0xb2df845adefd7ff241ce0f9d7ddd9b8c0d6e7d9e4f48e0872c0cba927baf126e",
          "transactionIndex": "0x7c",
          "logIndex": "0x184",
          "removed": false
        }
      ],
      "logsBloom": "0x00001200000000000000000000000000000000000000000000000000000000000000000000000000000000000000000000000000000000000000000000000000000000000000000000000000000000000000000000000000020000000000000000000000000000000000000000000000000200000000000000000004000000000000000000000000000000000000000000000000080040000000000000000000000000000000000000000000000000000000000000000000000000000000000000000000000000002000000040000000000000000000000000000000000000000000000000000000000000000000000000000000000000000000000000000000",
      "type": "0x0",
      "transactionHash": "0xb2df845adefd7ff241ce0f9d7ddd9b8c0d6e7d9e4f48e0872c0cba927baf126e",
      "transactionIndex": "0x7c",
      "blockHash": "0x5f2e451583d64f1448e9b232b89ee970c9ca5aa31e6239f1fca04096bd8a5028",
      "blockNumber": "0xa023b9",
      "gasUsed": "0x12558",
      "effectiveGasPrice": "0xf424d",
      "from": "0x39ecf94ed35451a67006dcce4a467aecdfab6940",
      "to": "0x0faabbda5abf0160b0b3621c2705fa94794de14d",
      "contractAddress": null
    },
    {
      "status": "0x1",
      "cumulativeGasUsed": "0xc670b2",
      "logs": [
        {
          "address": "0x0faabbda5abf0160b0b3621c2705fa94794de14d",
          "topics": [
            "0xa7619631cde1c065de22e66a6c03f6b308479a193ec4512e38897386aba8ff94",
            "0x0000000000000000000000000438b37cf877da19a633a3392e5facc9180f6656"
          ],
          "data": "0x0000000000000000000000000000000000000000000000000000000000001770",
          "blockHash": "0x5f2e451583d64f1448e9b232b89ee970c9ca5aa31e6239f1fca04096bd8a5028",
          "blockNumber": "0xa023b9",
          "blockTimestamp": "0x69bf5674",
          "transactionHash": "0xab1d2d62e26664536bbf24d545b88e0d97d0c534d4d1e02f728f20707516a1b9",
          "transactionIndex": "0x7d",
          "logIndex": "0x185",
          "removed": false
        }
      ],
      "logsBloom": "0x00001200000000000000000000000000000000000000000000000000000000000000000000000000000000000000000000000000000000000000000000000000400000000000000000000001000000000000000000000000000000000000000000000000000000000000000000000000000200000000000000000004000000000000000000000000000000000000000000000000000040000000000000000080000000000000000000000000000000000000000000000000000000000000000000000000000000000000000040000000000000000000000000000000000000000000000000000000000000000000000000000000000000000000000000000000",
      "type": "0x0",
      "transactionHash": "0xab1d2d62e26664536bbf24d545b88e0d97d0c534d4d1e02f728f20707516a1b9",
      "transactionIndex": "0x7d",
      "blockHash": "0x5f2e451583d64f1448e9b232b89ee970c9ca5aa31e6239f1fca04096bd8a5028",
      "blockNumber": "0xa023b9",
      "gasUsed": "0xc297",
      "effectiveGasPrice": "0xf424d",
      "from": "0x39ecf94ed35451a67006dcce4a467aecdfab6940",
      "to": "0x0faabbda5abf0160b0b3621c2705fa94794de14d",
      "contractAddress": null
    },
    {
      "status": "0x1",
      "cumulativeGasUsed": "0xc954f3",
      "logs": [
        {
          "address": "0x0faabbda5abf0160b0b3621c2705fa94794de14d",
          "topics": [
            "0xde1fdabb94b8976ee8f1dfb58209db8b54448024d2f1acf888df7bcbe7860d34",
            "0x0000000000000000000000000438b37cf877da19a633a3392e5facc9180f6656"
          ],
          "data": "0x0000000000000000000000000000000000000000000000001bc16d674ec80000000000000000000000000000000000000000000000000000063eb89da4ed00000000000000000000000000000000000000000000000000000000000000000320",
          "blockHash": "0x5f2e451583d64f1448e9b232b89ee970c9ca5aa31e6239f1fca04096bd8a5028",
          "blockNumber": "0xa023b9",
          "blockTimestamp": "0x69bf5674",
          "transactionHash": "0xfab311d68d09c647f0674636ffe49800b4aac7c027538162aa92f4d55fe05538",
          "transactionIndex": "0x7e",
          "logIndex": "0x186",
          "removed": false
        }
      ],
      "logsBloom": "0x00001200000000000000000000000000002000000000000000000000000000000000000000000000000000000000000000000000000000000000000000000000000000000000000000000000000000000000000000000000000000000000000000000000000000000000000000000000000200000000000000000004000000000000000000000000000000000000000000000000000040000000000000000000000000000000000020000000000000000000000000000000000000000000000000000000000000000000000040000000000000000000000000000000000000000000000000000000400000000000000000000000000000000000000000000000",
      "type": "0x0",
      "transactionHash": "0xfab311d68d09c647f0674636ffe49800b4aac7c027538162aa92f4d55fe05538",
      "transactionIndex": "0x7e",
      "blockHash": "0x5f2e451583d64f1448e9b232b89ee970c9ca5aa31e6239f1fca04096bd8a5028",
      "blockNumber": "0xa023b9",
      "gasUsed": "0x2e441",
      "effectiveGasPrice": "0xf424d",
      "from": "0x39ecf94ed35451a67006dcce4a467aecdfab6940",
      "to": "0x0faabbda5abf0160b0b3621c2705fa94794de14d",
      "contractAddress": null
    }
  ],
  "libraries": [],
  "pending": [],
  "returns": {},
  "timestamp": 1774147188711,
  "chain": 11155111,
  "commit": "bfee758"
}