{
  "transactions": [
    {
      "hash": "0x409de4a1256481d314437b2524831edf4eb67e19827c8dda481020a23eae9b08",
      "transactionType": "CALL",
      "contractName": null,
      "contractAddress": "0x195211d03c8ba6dfbb90943ab7c0a59b62ea63e8",
      "function": "setTokenPriceFeed(address,address)",
      "arguments": [
        "0x97f2d4d3B65f241e0C097003d01De2D7562ddB56",
        "0x5e3d1f583354bCE6a10f35Dbc22E8a2A9a8FA73C"
      ],
      "transaction": {
        "from": "0x39ecf94ed35451a67006dcce4a467aecdfab6940",
        "to": "0x195211d03c8ba6dfbb90943ab7c0a59b62ea63e8",
        "gas": "0x11aa3",
        "value": "0x0",
        "input": "0x674417ae00000000000000000000000097f2d4d3b65f241e0c097003d01de2d7562ddb560000000000000000000000005e3d1f583354bce6a10f35dbc22e8a2a9a8fa73c",
        "nonce": "0x1e5",
        "chainId": "0xaa36a7"
      },
      "additionalContracts": [],
      "isFixedGasLimit": false
    },
    {
      "hash": "0x18ce0c028265ff33e4cf836eace4b67b88540d253c30b5f0bc1d58042e911d60",
      "transactionType": "CALL",
      "contractName": null,
      "contractAddress": "0x195211d03c8ba6dfbb90943ab7c0a59b62ea63e8",
      "function": "setTokenPriceFeed(address,address)",
      "arguments": [
        "0xE516dD6240F8d86FBe4dbc0d2a84CB9e3eA3A66A",
        "0x5e3d1f583354bCE6a10f35Dbc22E8a2A9a8FA73C"
      ],
      "transaction": {
        "from": "0x39ecf94ed35451a67006dcce4a467aecdfab6940",
        "to": "0x195211d03c8ba6dfbb90943ab7c0a59b62ea63e8",
        "gas": "0x11aa3",
        "value": "0x0",
        "input": "0x674417ae000000000000000000000000e516dd6240f8d86fbe4dbc0d2a84cb9e3ea3a66a0000000000000000000000005e3d1f583354bce6a10f35dbc22e8a2a9a8fa73c",
        "nonce": "0x1e6",
        "chainId": "0xaa36a7"
      },
      "additionalContracts": [],
      "isFixedGasLimit": false
    }
  ],
  "receipts": [
    {
      "status": "0x1",
      "cumulativeGasUsed": "0x8910b1",
      "logs": [],
      "logsBloom": "0x00000000000000000000000000000000000000000000000000000000000000000000000000000000000000000000000000000000000000000000000000000000000000000000000000000000000000000000000000000000000000000000000000000000000000000000000000000000000000000000000000000000000000000000000000000000000000000000000000000000000000000000000000000000000000000000000000000000000000000000000000000000000000000000000000000000000000000000000000000000000000000000000000000000000000000000000000000000000000000000000000000000000000000000000000000000",
      "type": "0x2",
      "transactionHash": "0x18ce0c028265ff33e4cf836eace4b67b88540d253c30b5f0bc1d58042e911d60",
      "transactionIndex": "0x3b",
      "blockHash": "0xadb14d3ef3652a1b4301179f5f669cf845b3348747f06dd53345ec3822c90fc1",
      "blockNumber": "0xa03856",
      "gasUsed": "0xc142",
      "effectiveGasPrice": "0x208441f20",
      "from": "0x39ecf94ed35451a67006dcce4a467aecdfab6940",
      "to": "0x195211d03c8ba6dfbb90943ab7c0a59b62ea63e8",
      "contractAddress": null
    },
    {
      "status": "0x1",
      "cumulativeGasUsed": "0x89d1f3",
      "logs": [],
      "logsBloom": "0x00000000000000000000000000000000000000000000000000000000000000000000000000000000000000000000000000000000000000000000000000000000000000000000000000000000000000000000000000000000000000000000000000000000000000000000000000000000000000000000000000000000000000000000000000000000000000000000000000000000000000000000000000000000000000000000000000000000000000000000000000000000000000000000000000000000000000000000000000000000000000000000000000000000000000000000000000000000000000000000000000000000000000000000000000000000",
      "type": "0x2",
      "transactionHash": "0x409de4a1256481d314437b2524831edf4eb67e19827c8dda481020a23eae9b08",
      "transactionIndex": "0x3c",
      "blockHash": "0xadb14d3ef3652a1b4301179f5f669cf845b3348747f06dd53345ec3822c90fc1",
      "blockNumber": "0xa03856",
      "gasUsed": "0xc142",
      "effectiveGasPrice": "0x208441f20",
      "from": "0x39ecf94ed35451a67006dcce4a467aecdfab6940",
      "to": "0x195211d03c8ba6dfbb90943ab7c0a59b62ea63e8",
      "contractAddress": null
    }
  ],
  "libraries": [],
  "pending": [],
  "returns": {},
  "timestamp": 1774212564426,
  "chain": 11155111,
  "commit": "bfee758"
}